{"abi":[{"type":"function","name":"GetName","inputs":[],"outputs":[{"name":"","type":"string","internalType":"string"}],"stateMutability":"view"}],"bytecode":{"object":"0x60c06040526005608090815264537572796160d81b60a05260009061002490826100d8565b5034801561003157600080fd5b50610197565b634e487b7160e01b600052604160045260246000fd5b600181811c9082168061006157607f821691505b60208210810361008157634e487b7160e01b600052602260045260246000fd5b50919050565b601f8211156100d3576000816000526020600020601f850160051c810160208610156100b05750805b601f850160051c820191505b818110156100cf578281556001016100bc565b5050505b505050565b81516001600160401b038111156100f1576100f1610037565b610105816100ff845461004d565b84610087565b602080601f83116001811461013a57600084156101225750858301515b600019600386901b1c1916600185901b1785556100cf565b600085815260208120601f198616915b828110156101695788860151825594840194600190910190840161014a565b50858210156101875787850151600019600388901b60f8161c191681555b5050505050600190811b01905550565b61019f806101a66000396000f3fe608060405234801561001057600080fd5b506004361061002b5760003560e01c8063fe704a9d14610030575b600080fd5b61003861004e565b60405161004591906100e0565b60405180910390f35b60606000805461005d9061012f565b80601f01602080910402602001604051908101604052809291908181526020018280546100899061012f565b80156100d65780601f106100ab576101008083540402835291602001916100d6565b820191906000526020600020905b8154815290600101906020018083116100b957829003601f168201915b5050505050905090565b60006020808352835180602085015260005b8181101561010e578581018301518582016040015282016100f2565b506000604082860101526040601f19601f8301168501019250505092915050565b600181811c9082168061014357607f821691505b60208210810361016357634e487b7160e01b600052602260045260246000fd5b5091905056fea26469706673582212204c1291cfcfde0d72155fe05223df7ec04a0f90c335dc12b2af8ffd26e8eee2d364736f6c63430008180033","linkReferences":{}},"methodIdentifiers":{"GetName()":"fe704a9d"},"id":0}