{"abi":[{"type":"constructor","inputs":[],"stateMutability":"nonpayable"},{"type":"function","name":"approve","inputs":[{"name":"to","type":"address","internalType":"address"},{"name":"tokenId","type":"uint256","internalType":"uint256"}],"outputs":[],"stateMutability":"nonpayable"},{"type":"function","name":"balanceOf","inputs":[{"name":"owner","type":"address","internalType":"address"}],"outputs":[{"name":"","type":"uint256","internalType":"uint256"}],"stateMutability":"view"},{"type":"function","name":"buy","inputs":[{"name":"_tokenId","type":"uint256","internalType":"uint256"}],"outputs":[],"stateMutability":"payable"},{"type":"function","name":"getApproved","inputs":[{"name":"tokenId","type":"uint256","internalType":"uint256"}],"outputs":[{"name":"","type":"address","internalType":"address"}],"stateMutability":"view"},{"type":"function","name":"getMetadata","inputs":[{"name":"_tokenId","type":"uint256","internalType":"uint256"}],"outputs":[{"name":"","type":"tuple","internalType":"struct Ticket.Metadata","components":[{"name":"owner","type":"address","internalType":"address payable"},{"name":"name","type":"string","internalType":"string"},{"name":"time","type":"string","internalType":"string"},{"name":"location","type":"string","internalType":"string"}]}],"stateMutability":"view"},{"type":"function","name":"getTokenId","inputs":[],"outputs":[{"name":"","type":"uint256","internalType":"uint256"}],"stateMutability":"view"},{"type":"function","name":"isApprovedForAll","inputs":[{"name":"owner","type":"address","internalType":"address"},{"name":"operator","type":"address","internalType":"address"}],"outputs":[{"name":"","type":"bool","internalType":"bool"}],"stateMutability":"view"},{"type":"function","name":"mint","inputs":[{"name":"_name","type":"string","internalType":"string"},{"name":"_time","type":"string","internalType":"string"},{"name":"_loc","type":"string","internalType":"string"},{"name":"_eventTime","type":"uint256","internalType":"uint256"},{"name":"_transferType","type":"uint8","internalType":"uint8"},{"name":"_deadlineTime","type":"uint256","internalType":"uint256"},{"name":"_ticketCost","type":"uint256","internalType":"uint256"}],"outputs":[],"stateMutability":"nonpayable"},{"type":"function","name":"name","inputs":[],"outputs":[{"name":"","type":"string","internalType":"string"}],"stateMutability":"view"},{"type":"function","name":"ownerOf","inputs":[{"name":"tokenId","type":"uint256","internalType":"uint256"}],"outputs":[{"name":"","type":"address","internalType":"address"}],"stateMutability":"view"},{"type":"function","name":"revertSell","inputs":[{"name":"_tokenId","type":"uint256","internalType":"uint256"}],"outputs":[],"stateMutability":"nonpayable"},{"type":"function","name":"safeTransferFrom","inputs":[{"name":"from","type":"address","internalType":"address"},{"name":"to","type":"address","internalType":"address"},{"name":"tokenId","type":"uint256","internalType":"uint256"}],"outputs":[],"stateMutability":"nonpayable"},{"type":"function","name":"safeTransferFrom","inputs":[{"name":"from","type":"address","internalType":"address"},{"name":"to","type":"address","internalType":"address"},{"name":"tokenId","type":"uint256","internalType":"uint256"},{"name":"data","type":"bytes","internalType":"bytes"}],"outputs":[],"stateMutability":"nonpayable"},{"type":"function","name":"sell","inputs":[{"name":"_sellingPrice","type":"uint256","internalType":"uint256"},{"name":"_tokenId","type":"uint256","internalType":"uint256"}],"outputs":[],"stateMutability":"nonpayable"},{"type":"function","name":"setApprovalForAll","inputs":[{"name":"operator","type":"address","internalType":"address"},{"name":"approved","type":"bool","internalType":"bool"}],"outputs":[],"stateMutability":"nonpayable"},{"type":"function","name":"supportsInterface","inputs":[{"name":"interfaceId","type":"bytes4","internalType":"bytes4"}],"outputs":[{"name":"","type":"bool","internalType":"bool"}],"stateMutability":"view"},{"type":"function","name":"symbol","inputs":[],"outputs":[{"name":"","type":"string","internalType":"string"}],"stateMutability":"view"},{"type":"function","name":"tokenURI","inputs":[{"name":"tokenId","type":"uint256","internalType":"uint256"}],"outputs":[{"name":"","type":"string","internalType":"string"}],"stateMutability":"view"},{"type":"function","name":"transfer","inputs":[{"name":"_tokenId","type":"uint256","internalType":"uint256"},{"name":"_to","type":"address","internalType":"address"}],"outputs":[],"stateMutability":"nonpayable"},{"type":"function","name":"transferFrom","inputs":[{"name":"from","type":"address","internalType":"address"},{"name":"to","type":"address","internalType":"address"},{"name":"tokenId","type":"uint256","internalType":"uint256"}],"outputs":[],"stateMutability":"nonpayable"},{"type":"function","name":"verify","inputs":[{"name":"_tokenId","type":"uint256","internalType":"uint256"},{"name":"_owner","type":"address","internalType":"address"}],"outputs":[{"name":"","type":"bool","internalType":"bool"}],"stateMutability":"view"},{"type":"event","name":"Approval","inputs":[{"name":"owner","type":"address","indexed":true,"internalType":"address"},{"name":"approved","type":"address","indexed":true,"internalType":"address"},{"name":"tokenId","type":"uint256","indexed":true,"internalType":"uint256"}],"anonymous":false},{"type":"event","name":"ApprovalForAll","inputs":[{"name":"owner","type":"address","indexed":true,"internalType":"address"},{"name":"operator","type":"address","indexed":true,"internalType":"address"},{"name":"approved","type":"bool","indexed":false,"internalType":"bool"}],"anonymous":false},{"type":"event","name":"BatchMetadataUpdate","inputs":[{"name":"_fromTokenId","type":"uint256","indexed":false,"internalType":"uint256"},{"name":"_toTokenId","type":"uint256","indexed":false,"internalType":"uint256"}],"anonymous":false},{"type":"event","name":"MetadataUpdate","inputs":[{"name":"_tokenId","type":"uint256","indexed":false,"internalType":"uint256"}],"anonymous":false},{"type":"event","name":"TokenMinted","inputs":[{"name":"owner","type":"address","indexed":true,"internalType":"address"},{"name":"tokenId","type":"uint256","indexed":true,"internalType":"uint256"}],"anonymous":false},{"type":"event","name":"TokenSold","inputs":[{"name":"buyer","type":"address","indexed":true,"internalType":"address"},{"name":"tokenId","type":"uint256","indexed":true,"internalType":"uint256"}],"anonymous":false},{"type":"event","name":"TokenTransferred","inputs":[{"name":"from","type":"address","indexed":true,"internalType":"address"},{"name":"to","type":"address","indexed":true,"internalType":"address"},{"name":"tokenId","type":"uint256","indexed":true,"internalType":"uint256"}],"anonymous":false},{"type":"event","name":"Transfer","inputs":[{"name":"from","type":"address","indexed":true,"internalType":"address"},{"name":"to","type":"address","indexed":true,"internalType":"address"},{"name":"tokenId","type":"uint256","indexed":true,"internalType":"uint256"}],"anonymous":false},{"type":"error","name":"ERC721IncorrectOwner","inputs":[{"name":"sender","type":"address","internalType":"address"},{"name":"tokenId","type":"uint256","internalType":"uint256"},{"name":"owner","type":"address","internalType":"address"}]},{"type":"error","name":"ERC721InsufficientApproval","inputs":[{"name":"operator","type":"address","internalType":"address"},{"name":"tokenId","type":"uint256","internalType":"uint256"}]},{"type":"error","name":"ERC721InvalidApprover","inputs":[{"name":"approver","type":"address","internalType":"address"}]},{"type":"error","name":"ERC721InvalidOperator","inputs":[{"name":"operator","type":"address","internalType":"address"}]},{"type":"error","name":"ERC721InvalidOwner","inputs":[{"name":"owner","type":"address","internalType":"address"}]},{"type":"error","name":"ERC721InvalidReceiver","inputs":[{"name":"receiver","type":"address","internalType":"address"}]},{"type":"error","name":"ERC721InvalidSender","inputs":[{"name":"sender","type":"address","internalType":"address"}]},{"type":"error","name":"ERC721NonexistentToken","inputs":[{"name":"tokenId","type":"uint256","internalType":"uint256"}]}],"bytecode":{"object":"0x608060405260006007553480156200001657600080fd5b506040518060400160405280600781526020016611151a58dad95d60ca1b8152506040518060400160405280600381526020016244544b60e81b815250816000908162000064919062000123565b50600162000073828262000123565b505050620001ef565b634e487b7160e01b600052604160045260246000fd5b600181811c90821680620000a757607f821691505b602082108103620000c857634e487b7160e01b600052602260045260246000fd5b50919050565b601f8211156200011e576000816000526020600020601f850160051c81016020861015620000f95750805b601f850160051c820191505b818110156200011a5782815560010162000105565b5050505b505050565b81516001600160401b038111156200013f576200013f6200007c565b620001578162000150845462000092565b84620000ce565b602080601f8311600181146200018f5760008415620001765750858301515b600019600386901b1c1916600185901b1785556200011a565b600085815260208120601f198616915b82811015620001c0578886015182559484019460019091019084016200019f565b5085821015620001df5787850151600019600388901b60f8161c191681555b5050505050600190811b01905550565b6123ab80620001ff6000396000f3fe60806040526004361061012a5760003560e01c806395d89b41116100ab578063c87b56dd1161006f578063c87b56dd14610345578063d662f77414610365578063d79875eb14610385578063d96a094a146103a5578063e985e9c5146103b8578063ebfa62b9146103d857600080fd5b806395d89b41146102a3578063a22cb465146102b8578063a574cea4146102d8578063b7760c8f14610305578063b88d4fde1461032557600080fd5b806323b872dd116100f257806323b872dd1461020357806342842e0e146102235780636352211e1461024357806370a08231146102635780638bd5fe661461028357600080fd5b8063010a38f51461012f57806301ffc9a71461015757806306fdde0314610187578063081812fc146101a9578063095ea7b3146101e1575b600080fd5b34801561013b57600080fd5b506101446103f8565b6040519081526020015b60405180910390f35b34801561016357600080fd5b50610177610172366004611ca1565b61040e565b604051901515815260200161014e565b34801561019357600080fd5b5061019c610439565b60405161014e9190611d0e565b3480156101b557600080fd5b506101c96101c4366004611d21565b6104cb565b6040516001600160a01b03909116815260200161014e565b3480156101ed57600080fd5b506102016101fc366004611d56565b6104f4565b005b34801561020f57600080fd5b5061020161021e366004611d80565b610503565b34801561022f57600080fd5b5061020161023e366004611d80565b610593565b34801561024f57600080fd5b506101c961025e366004611d21565b6105b3565b34801561026f57600080fd5b5061014461027e366004611dbc565b6105be565b34801561028f57600080fd5b5061020161029e366004611e83565b610606565b3480156102af57600080fd5b5061019c6109c4565b3480156102c457600080fd5b506102016102d3366004611f42565b6109d3565b3480156102e457600080fd5b506102f86102f3366004611d21565b6109de565b60405161014e9190611f7e565b34801561031157600080fd5b50610201610320366004611ff1565b610c4b565b34801561033157600080fd5b5061020161034036600461201d565b610d90565b34801561035157600080fd5b5061019c610360366004611d21565b610da7565b34801561037157600080fd5b50610201610380366004611d21565b610eb8565b34801561039157600080fd5b506102016103a0366004612099565b610f31565b6102016103b3366004611d21565b6110b6565b3480156103c457600080fd5b506101776103d33660046120bb565b61136d565b3480156103e457600080fd5b506101776103f3366004611ff1565b61139b565b6000600160075461040991906120fb565b905090565b60006001600160e01b03198216632483248360e11b14806104335750610433826113e4565b92915050565b6060600080546104489061210e565b80601f01602080910402602001604051908101604052809291908181526020018280546104749061210e565b80156104c15780601f10610496576101008083540402835291602001916104c1565b820191906000526020600020905b8154815290600101906020018083116104a457829003601f168201915b5050505050905090565b60006104d682611434565b506000828152600460205260409020546001600160a01b0316610433565b6104ff82823361146d565b5050565b6001600160a01b03821661053257604051633250574960e11b8152600060048201526024015b60405180910390fd5b600061053f83833361147a565b9050836001600160a01b0316816001600160a01b03161461058d576040516364283d7b60e01b81526001600160a01b0380861660048301526024820184905282166044820152606401610529565b50505050565b6105ae83838360405180602001604052806000815250610d90565b505050565b600061043382611434565b60006001600160a01b0382166105ea576040516322718ad960e21b815260006004820152602401610529565b506001600160a01b031660009081526003602052604090205490565b42841161067b5760405162461bcd60e51b815260206004820152603c60248201527f4d696e74204572726f723a204576656e742074696d65206e6565647320746f2060448201527f62652067726561746572207468616e2063757272656e742074696d65000000006064820152608401610529565b61068733600754611573565b6106a2600754604051806020016040528060008152506115d8565b8260ff16600003610764576040805160e08101825233815260208082018781528284018881526060840186815260808501878152600060a0870181815288518088018a5282815260c0890190815260075483526008909752979020865181546001600160a01b0319166001600160a01b039091161781559351600185015591516002840155516003830155516004820155925160058401805460ff191691151591909117905551909190600682019061075b9082612192565b509050506108e7565b8260ff16600103610834576040805160e0810182523381526020810186905290810161079084876120fb565b815260208082018490526040808301859052600060608085018290528251808501845282815260809586015260075482526008845290829020855181546001600160a01b0319166001600160a01b03909116178155928501516001840155908401516002830155830151600382015590820151600482015560a082015160058201805460ff191691151591909117905560c0820151600682019061075b9082612192565b6040805160e08101825233815260208082018781526000838501818152606085018781526080860188815260a0870184815288518088018a5285815260c089019081526007548652600890975297909320865181546001600160a01b0319166001600160a01b039091161781559351600185015590516002840155516003830155516004820155925160058401805460ff19169115159190911790555190919060068201906108e39082612192565b5050505b6040805160808101825233815260208082018a81528284018a90526060830189905260075460009081526009909252929020815181546001600160a01b0319166001600160a01b03909116178155915190919060018201906109499082612192565b506040820151600282019061095e9082612192565b50606082015160038201906109739082612192565b505060075460405190915033907fb9144c96c86541f6fa89c9f2f02495cccf4b08cd6643e26d34ee00aa586558a890600090a3600780549060006109b683612252565b919050555050505050505050565b6060600180546104489061210e565b6104ff338383611628565b610a12604051806080016040528060006001600160a01b031681526020016060815260200160608152602001606081525090565b816007548110610a345760405162461bcd60e51b81526004016105299061226b565b60408051608081018252600085815260086020908152838220546001600160a01b031683528682526009815292812060010180549193830191610a769061210e565b80601f0160208091040260200160405190810160405280929190818152602001828054610aa29061210e565b8015610aef5780601f10610ac457610100808354040283529160200191610aef565b820191906000526020600020905b815481529060010190602001808311610ad257829003601f168201915b50505050508152602001600960008781526020019081526020016000206002018054610b1a9061210e565b80601f0160208091040260200160405190810160405280929190818152602001828054610b469061210e565b8015610b935780601f10610b6857610100808354040283529160200191610b93565b820191906000526020600020905b815481529060010190602001808311610b7657829003601f168201915b50505050508152602001600960008781526020019081526020016000206003018054610bbe9061210e565b80601f0160208091040260200160405190810160405280929190818152602001828054610bea9061210e565b8015610c375780601f10610c0c57610100808354040283529160200191610c37565b820191906000526020600020905b815481529060010190602001808311610c1a57829003601f168201915b505050919092525090935050505b50919050565b816007548110610c6d5760405162461bcd60e51b81526004016105299061226b565b826007548110610c8f5760405162461bcd60e51b81526004016105299061226b565b83610c99816105b3565b6001600160a01b0316336001600160a01b031614610cc95760405162461bcd60e51b8152600401610529906122a2565b6000858152600860205260409020600201544210610d465760405162461bcd60e51b815260206004820152603460248201527f5472616e73666572204572726f723a2043616e6e6f74207472616e7366657220604482015273746f6b656e20616674657220646561646c696e6560601b6064820152608401610529565b610d513385876116c7565b60405185906001600160a01b0386169033907f9c8515990fd8c61431c4ac8db9b81475f90c292a1dda77731e56c22e64fc764390600090a45050505050565b610d9b848484610503565b61058d84848484611777565b6060610db282611434565b5060008281526006602052604081208054610dcc9061210e565b80601f0160208091040260200160405190810160405280929190818152602001828054610df89061210e565b8015610e455780601f10610e1a57610100808354040283529160200191610e45565b820191906000526020600020905b815481529060010190602001808311610e2857829003601f168201915b505050505090506000610e6360408051602081019091526000815290565b90508051600003610e75575092915050565b815115610ea7578082604051602001610e8f9291906122ec565b60405160208183030381529060405292505050919050565b610eb0846118a0565b949350505050565b806007548110610eda5760405162461bcd60e51b81526004016105299061226b565b81610ee4816105b3565b6001600160a01b0316336001600160a01b031614610f145760405162461bcd60e51b8152600401610529906122a2565b50506000908152600860205260409020600501805460ff19169055565b806007548110610f535760405162461bcd60e51b81526004016105299061226b565b81610f5d816105b3565b6001600160a01b0316336001600160a01b031614610f8d5760405162461bcd60e51b8152600401610529906122a2565b6000838152600860205260409020600301548411156110145760405162461bcd60e51b815260206004820152603d60248201527f53656c6c204572726f723a2053656c6c696e672070726963652063616e6e6f7460448201527f2062652067726561746572207468616e20696e697469616c20636f73740000006064820152608401610529565b60008381526008602052604090206002015442111561108e5760405162461bcd60e51b815260206004820152603060248201527f53656c6c204572726f723a2043616e6e6f74207472616e7366657220746f6b6560448201526f6e20616674657220646561646c696e6560801b6064820152608401610529565b505060009081526008602052604090206004810191909155600501805460ff19166001179055565b8060075481106110d85760405162461bcd60e51b81526004016105299061226b565b60008281526008602052604090206005015460ff166111395760405162461bcd60e51b815260206004820152601d60248201527f427579204572726f723a20546f6b656e206e6f7420666f722073616c650000006044820152606401610529565b6000828152600860205260409020600201544211156111b25760405162461bcd60e51b815260206004820152602f60248201527f427579204572726f723a2043616e6e6f74207472616e7366657220746f6b656e60448201526e20616674657220646561646c696e6560881b6064820152608401610529565b60008281526008602052604090206004015434101561121f5760405162461bcd60e51b8152602060048201526024808201527f427579204572726f723a20496e7375666669656369656e7420616d6f756e74206044820152631cd95b9d60e21b6064820152608401610529565b6000828152600860205260409020600501805460ff1916905561124182611915565b61124b3383611573565b600082815260086020526040902060060180546112f091849161126d9061210e565b80601f01602080910402602001604051908101604052809291908181526020018280546112999061210e565b80156112e65780601f106112bb576101008083540402835291602001916112e6565b820191906000526020600020905b8154815290600101906020018083116112c957829003601f168201915b50505050506115d8565b600082815260086020526040808220805460049091015491516001600160a01b039091169282156108fc02929190818181858888f1935050505015801561133b573d6000803e3d6000fd5b50604051829033907ffe2ff4cf36ff7d2c2b06eb960897ee0d76d9c3e58da12feb7b93e86b226dd34490600090a35050565b6001600160a01b03918216600090815260056020908152604080832093909416825291909152205460ff1690565b60008260075481106113bf5760405162461bcd60e51b81526004016105299061226b565b826001600160a01b03166113d2856105b3565b6001600160a01b031614949350505050565b60006001600160e01b031982166380ac58cd60e01b148061141557506001600160e01b03198216635b5e139f60e01b145b8061043357506301ffc9a760e01b6001600160e01b0319831614610433565b6000818152600260205260408120546001600160a01b03168061043357604051637e27328960e01b815260048101849052602401610529565b6105ae8383836001611950565b6000828152600260205260408120546001600160a01b03908116908316156114a7576114a7818486611a56565b6001600160a01b038116156114e5576114c4600085600080611950565b6001600160a01b038116600090815260036020526040902080546000190190555b6001600160a01b03851615611514576001600160a01b0385166000908152600360205260409020805460010190555b60008481526002602052604080822080546001600160a01b0319166001600160a01b0389811691821790925591518793918516917fddf252ad1be2c89b69c2b068fc378daa952ba7f163c4a11628f55a4df523b3ef91a4949350505050565b6001600160a01b03821661159d57604051633250574960e11b815260006004820152602401610529565b60006115ab8383600061147a565b90506001600160a01b038116156105ae576040516339e3563760e11b815260006004820152602401610529565b60008281526006602052604090206115f08282612192565b506040518281527ff8e1a15aba9398e019f0b49df1a4fde98ee17ae345cb5f6b5e2c27f5033e8ce79060200160405180910390a15050565b6001600160a01b03821661165a57604051630b61174360e31b81526001600160a01b0383166004820152602401610529565b6001600160a01b03838116600081815260056020908152604080832094871680845294825291829020805460ff191686151590811790915591519182527f17307eab39ab6107e8899845ad3d59bd9653f200f220920489ca2b5937696c31910160405180910390a3505050565b6001600160a01b0382166116f157604051633250574960e11b815260006004820152602401610529565b60006116ff8383600061147a565b90506001600160a01b03811661172b57604051637e27328960e01b815260048101839052602401610529565b836001600160a01b0316816001600160a01b03161461058d576040516364283d7b60e01b81526001600160a01b0380861660048301526024820184905282166044820152606401610529565b6001600160a01b0383163b1561058d57604051630a85bd0160e11b81526001600160a01b0384169063150b7a02906117b990339088908790879060040161231b565b6020604051808303816000875af19250505080156117f4575060408051601f3d908101601f191682019092526117f191810190612358565b60015b61185d573d808015611822576040519150601f19603f3d011682016040523d82523d6000602084013e611827565b606091505b50805160000361185557604051633250574960e11b81526001600160a01b0385166004820152602401610529565b805181602001fd5b6001600160e01b03198116630a85bd0160e11b1461189957604051633250574960e11b81526001600160a01b0385166004820152602401610529565b5050505050565b60606118ab82611434565b5060006118c360408051602081019091526000815290565b905060008151116118e3576040518060200160405280600081525061190e565b806118ed84611aba565b6040516020016118fe9291906122ec565b6040516020818303038152906040525b9392505050565b6000611924600083600061147a565b90506001600160a01b0381166104ff57604051637e27328960e01b815260048101839052602401610529565b808061196457506001600160a01b03821615155b15611a2657600061197484611434565b90506001600160a01b038316158015906119a05750826001600160a01b0316816001600160a01b031614155b80156119b357506119b1818461136d565b155b156119dc5760405163a9fbf51f60e01b81526001600160a01b0384166004820152602401610529565b8115611a245783856001600160a01b0316826001600160a01b03167f8c5be1e5ebec7d5bd14f71427d1e84f3dd0314c0f7b2291e5b200ac8c7c3b92560405160405180910390a45b505b5050600090815260046020526040902080546001600160a01b0319166001600160a01b0392909216919091179055565b611a61838383611b4d565b6105ae576001600160a01b038316611a8f57604051637e27328960e01b815260048101829052602401610529565b60405163177e802f60e01b81526001600160a01b038316600482015260248101829052604401610529565b60606000611ac783611bb0565b600101905060008167ffffffffffffffff811115611ae757611ae7611dd7565b6040519080825280601f01601f191660200182016040528015611b11576020820181803683370190505b5090508181016020015b600019016f181899199a1a9b1b9c1cb0b131b232b360811b600a86061a8153600a8504945084611b1b57509392505050565b60006001600160a01b03831615801590610eb05750826001600160a01b0316846001600160a01b03161480611b875750611b87848461136d565b80610eb05750506000908152600460205260409020546001600160a01b03908116911614919050565b60008072184f03e93ff9f4daa797ed6e38ed64bf6a1f0160401b8310611bef5772184f03e93ff9f4daa797ed6e38ed64bf6a1f0160401b830492506040015b6d04ee2d6d415b85acef81000000008310611c1b576d04ee2d6d415b85acef8100000000830492506020015b662386f26fc100008310611c3957662386f26fc10000830492506010015b6305f5e1008310611c51576305f5e100830492506008015b6127108310611c6557612710830492506004015b60648310611c77576064830492506002015b600a83106104335760010192915050565b6001600160e01b031981168114611c9e57600080fd5b50565b600060208284031215611cb357600080fd5b813561190e81611c88565b60005b83811015611cd9578181015183820152602001611cc1565b50506000910152565b60008151808452611cfa816020860160208601611cbe565b601f01601f19169290920160200192915050565b60208152600061190e6020830184611ce2565b600060208284031215611d3357600080fd5b5035919050565b80356001600160a01b0381168114611d5157600080fd5b919050565b60008060408385031215611d6957600080fd5b611d7283611d3a565b946020939093013593505050565b600080600060608486031215611d9557600080fd5b611d9e84611d3a565b9250611dac60208501611d3a565b9150604084013590509250925092565b600060208284031215611dce57600080fd5b61190e82611d3a565b634e487b7160e01b600052604160045260246000fd5b600067ffffffffffffffff80841115611e0857611e08611dd7565b604051601f8501601f19908116603f01168101908282118183101715611e3057611e30611dd7565b81604052809350858152868686011115611e4957600080fd5b858560208301376000602087830101525050509392505050565b600082601f830112611e7457600080fd5b61190e83833560208501611ded565b600080600080600080600060e0888a031215611e9e57600080fd5b873567ffffffffffffffff80821115611eb657600080fd5b611ec28b838c01611e63565b985060208a0135915080821115611ed857600080fd5b611ee48b838c01611e63565b975060408a0135915080821115611efa57600080fd5b50611f078a828b01611e63565b95505060608801359350608088013560ff81168114611f2557600080fd5b9699959850939692959460a0840135945060c09093013592915050565b60008060408385031215611f5557600080fd5b611f5e83611d3a565b915060208301358015158114611f7357600080fd5b809150509250929050565b602080825282516001600160a01b03168282015282015160806040830152600090611fac60a0840182611ce2565b90506040840151601f1980858403016060860152611fca8383611ce2565b9250606086015191508085840301608086015250611fe88282611ce2565b95945050505050565b6000806040838503121561200457600080fd5b8235915061201460208401611d3a565b90509250929050565b6000806000806080858703121561203357600080fd5b61203c85611d3a565b935061204a60208601611d3a565b925060408501359150606085013567ffffffffffffffff81111561206d57600080fd5b8501601f8101871361207e57600080fd5b61208d87823560208401611ded565b91505092959194509250565b600080604083850312156120ac57600080fd5b50508035926020909101359150565b600080604083850312156120ce57600080fd5b6120d783611d3a565b915061201460208401611d3a565b634e487b7160e01b600052601160045260246000fd5b81810381811115610433576104336120e5565b600181811c9082168061212257607f821691505b602082108103610c4557634e487b7160e01b600052602260045260246000fd5b601f8211156105ae576000816000526020600020601f850160051c8101602086101561216b5750805b601f850160051c820191505b8181101561218a57828155600101612177565b505050505050565b815167ffffffffffffffff8111156121ac576121ac611dd7565b6121c0816121ba845461210e565b84612142565b602080601f8311600181146121f557600084156121dd5750858301515b600019600386901b1c1916600185901b17855561218a565b600085815260208120601f198616915b8281101561222457888601518255948401946001909101908401612205565b50858210156122425787850151600019600388901b60f8161c191681555b5050505050600190811b01905550565b600060018201612264576122646120e5565b5060010190565b6020808252601e908201527f4572726f723a20546f6b656e20494420646f6573206e6f742065786973740000604082015260600190565b6020808252602a908201527f4572726f723a2046756e6374696f6e2063616c6c6572206e6f7420746865207460408201526937b5b2b71037bbb732b960b11b606082015260800190565b600083516122fe818460208801611cbe565b835190830190612312818360208801611cbe565b01949350505050565b6001600160a01b038581168252841660208201526040810183905260806060820181905260009061234e90830184611ce2565b9695505050505050565b60006020828403121561236a57600080fd5b815161190e81611c8856fea2646970667358221220005b41ca36268e12b7a01cfb6e9da8f32fadf9bd5dafc46f2f11893ec62d1d2464736f6c63430008180033","linkReferences":{}},"methodIdentifiers":{"approve(address,uint256)":"095ea7b3","balanceOf(address)":"70a08231","buy(uint256)":"d96a094a","getApproved(uint256)":"081812fc","getMetadata(uint256)":"a574cea4","getTokenId()":"010a38f5","isApprovedForAll(address,address)":"e985e9c5","mint(string,string,string,uint256,uint8,uint256,uint256)":"8bd5fe66","name()":"06fdde03","ownerOf(uint256)":"6352211e","revertSell(uint256)":"d662f774","safeTransferFrom(address,address,uint256)":"42842e0e","safeTransferFrom(address,address,uint256,bytes)":"b88d4fde","sell(uint256,uint256)":"d79875eb","setApprovalForAll(address,bool)":"a22cb465","supportsInterface(bytes4)":"01ffc9a7","symbol()":"95d89b41","tokenURI(uint256)":"c87b56dd","transfer(uint256,address)":"b7760c8f","transferFrom(address,address,uint256)":"23b872dd","verify(uint256,address)":"ebfa62b9"},"id":36}