{"abi":[{"type":"constructor","inputs":[],"stateMutability":"nonpayable"},{"type":"function","name":"approve","inputs":[{"name":"to","type":"address","internalType":"address"},{"name":"tokenId","type":"uint256","internalType":"uint256"}],"outputs":[],"stateMutability":"nonpayable"},{"type":"function","name":"balanceOf","inputs":[{"name":"owner","type":"address","internalType":"address"}],"outputs":[{"name":"","type":"uint256","internalType":"uint256"}],"stateMutability":"view"},{"type":"function","name":"buy","inputs":[{"name":"_tokenId","type":"uint256","internalType":"uint256"}],"outputs":[],"stateMutability":"payable"},{"type":"function","name":"getApproved","inputs":[{"name":"tokenId","type":"uint256","internalType":"uint256"}],"outputs":[{"name":"","type":"address","internalType":"address"}],"stateMutability":"view"},{"type":"function","name":"getMetadata","inputs":[{"name":"_tokenId","type":"uint256","internalType":"uint256"}],"outputs":[{"name":"","type":"tuple","internalType":"struct Ticket.Metadata","components":[{"name":"owner","type":"address","internalType":"address payable"},{"name":"name","type":"string","internalType":"string"},{"name":"time","type":"string","internalType":"string"},{"name":"location","type":"string","internalType":"string"},{"name":"seat","type":"string","internalType":"string"}]}],"stateMutability":"view"},{"type":"function","name":"getTokenId","inputs":[],"outputs":[{"name":"","type":"uint256","internalType":"uint256"}],"stateMutability":"view"},{"type":"function","name":"isApprovedForAll","inputs":[{"name":"owner","type":"address","internalType":"address"},{"name":"operator","type":"address","internalType":"address"}],"outputs":[{"name":"","type":"bool","internalType":"bool"}],"stateMutability":"view"},{"type":"function","name":"mint","inputs":[{"name":"_name","type":"string","internalType":"string"},{"name":"_time","type":"string","internalType":"string"},{"name":"_loc","type":"string","internalType":"string"},{"name":"_seat","type":"string","internalType":"string"},{"name":"_eventTime","type":"uint256","internalType":"uint256"},{"name":"_transferType","type":"uint8","internalType":"uint8"},{"name":"_deadlineTime","type":"uint256","internalType":"uint256"},{"name":"_ticketCost","type":"uint256","internalType":"uint256"}],"outputs":[],"stateMutability":"payable"},{"type":"function","name":"name","inputs":[],"outputs":[{"name":"","type":"string","internalType":"string"}],"stateMutability":"view"},{"type":"function","name":"ownerOf","inputs":[{"name":"tokenId","type":"uint256","internalType":"uint256"}],"outputs":[{"name":"","type":"address","internalType":"address"}],"stateMutability":"view"},{"type":"function","name":"revertSell","inputs":[{"name":"_tokenId","type":"uint256","internalType":"uint256"}],"outputs":[],"stateMutability":"nonpayable"},{"type":"function","name":"safeTransferFrom","inputs":[{"name":"from","type":"address","internalType":"address"},{"name":"to","type":"address","internalType":"address"},{"name":"tokenId","type":"uint256","internalType":"uint256"}],"outputs":[],"stateMutability":"nonpayable"},{"type":"function","name":"safeTransferFrom","inputs":[{"name":"from","type":"address","internalType":"address"},{"name":"to","type":"address","internalType":"address"},{"name":"tokenId","type":"uint256","internalType":"uint256"},{"name":"data","type":"bytes","internalType":"bytes"}],"outputs":[],"stateMutability":"nonpayable"},{"type":"function","name":"sell","inputs":[{"name":"_sellingPrice","type":"uint256","internalType":"uint256"},{"name":"_tokenId","type":"uint256","internalType":"uint256"}],"outputs":[],"stateMutability":"nonpayable"},{"type":"function","name":"setApprovalForAll","inputs":[{"name":"operator","type":"address","internalType":"address"},{"name":"approved","type":"bool","internalType":"bool"}],"outputs":[],"stateMutability":"nonpayable"},{"type":"function","name":"supportsInterface","inputs":[{"name":"interfaceId","type":"bytes4","internalType":"bytes4"}],"outputs":[{"name":"","type":"bool","internalType":"bool"}],"stateMutability":"view"},{"type":"function","name":"symbol","inputs":[],"outputs":[{"name":"","type":"string","internalType":"string"}],"stateMutability":"view"},{"type":"function","name":"tokenURI","inputs":[{"name":"tokenId","type":"uint256","internalType":"uint256"}],"outputs":[{"name":"","type":"string","internalType":"string"}],"stateMutability":"view"},{"type":"function","name":"transfer","inputs":[{"name":"_tokenId","type":"uint256","internalType":"uint256"},{"name":"_to","type":"address","internalType":"address"}],"outputs":[],"stateMutability":"nonpayable"},{"type":"function","name":"transferFrom","inputs":[{"name":"from","type":"address","internalType":"address"},{"name":"to","type":"address","internalType":"address"},{"name":"tokenId","type":"uint256","internalType":"uint256"}],"outputs":[],"stateMutability":"nonpayable"},{"type":"function","name":"verify","inputs":[{"name":"_tokenId","type":"uint256","internalType":"uint256"},{"name":"_owner","type":"address","internalType":"address"}],"outputs":[{"name":"","type":"bool","internalType":"bool"}],"stateMutability":"view"},{"type":"event","name":"Approval","inputs":[{"name":"owner","type":"address","indexed":true,"internalType":"address"},{"name":"approved","type":"address","indexed":true,"internalType":"address"},{"name":"tokenId","type":"uint256","indexed":true,"internalType":"uint256"}],"anonymous":false},{"type":"event","name":"ApprovalForAll","inputs":[{"name":"owner","type":"address","indexed":true,"internalType":"address"},{"name":"operator","type":"address","indexed":true,"internalType":"address"},{"name":"approved","type":"bool","indexed":false,"internalType":"bool"}],"anonymous":false},{"type":"event","name":"BatchMetadataUpdate","inputs":[{"name":"_fromTokenId","type":"uint256","indexed":false,"internalType":"uint256"},{"name":"_toTokenId","type":"uint256","indexed":false,"internalType":"uint256"}],"anonymous":false},{"type":"event","name":"MetadataUpdate","inputs":[{"name":"_tokenId","type":"uint256","indexed":false,"internalType":"uint256"}],"anonymous":false},{"type":"event","name":"TokenMinted","inputs":[{"name":"owner","type":"address","indexed":true,"internalType":"address"},{"name":"tokenId","type":"uint256","indexed":true,"internalType":"uint256"}],"anonymous":false},{"type":"event","name":"TokenSold","inputs":[{"name":"buyer","type":"address","indexed":true,"internalType":"address"},{"name":"tokenId","type":"uint256","indexed":true,"internalType":"uint256"}],"anonymous":false},{"type":"event","name":"TokenTransferred","inputs":[{"name":"from","type":"address","indexed":true,"internalType":"address"},{"name":"to","type":"address","indexed":true,"internalType":"address"},{"name":"tokenId","type":"uint256","indexed":true,"internalType":"uint256"}],"anonymous":false},{"type":"event","name":"Transfer","inputs":[{"name":"from","type":"address","indexed":true,"internalType":"address"},{"name":"to","type":"address","indexed":true,"internalType":"address"},{"name":"tokenId","type":"uint256","indexed":true,"internalType":"uint256"}],"anonymous":false},{"type":"error","name":"ERC721IncorrectOwner","inputs":[{"name":"sender","type":"address","internalType":"address"},{"name":"tokenId","type":"uint256","internalType":"uint256"},{"name":"owner","type":"address","internalType":"address"}]},{"type":"error","name":"ERC721InsufficientApproval","inputs":[{"name":"operator","type":"address","internalType":"address"},{"name":"tokenId","type":"uint256","internalType":"uint256"}]},{"type":"error","name":"ERC721InvalidApprover","inputs":[{"name":"approver","type":"address","internalType":"address"}]},{"type":"error","name":"ERC721InvalidOperator","inputs":[{"name":"operator","type":"address","internalType":"address"}]},{"type":"error","name":"ERC721InvalidOwner","inputs":[{"name":"owner","type":"address","internalType":"address"}]},{"type":"error","name":"ERC721InvalidReceiver","inputs":[{"name":"receiver","type":"address","internalType":"address"}]},{"type":"error","name":"ERC721InvalidSender","inputs":[{"name":"sender","type":"address","internalType":"address"}]},{"type":"error","name":"ERC721NonexistentToken","inputs":[{"name":"tokenId","type":"uint256","internalType":"uint256"}]}],"bytecode":{"object":"0x608060405260006007553480156200001657600080fd5b506040518060400160405280600781526020016611151a58dad95d60ca1b8152506040518060400160405280600381526020016244544b60e81b815250816000908162000064919062000123565b50600162000073828262000123565b505050620001ef565b634e487b7160e01b600052604160045260246000fd5b600181811c90821680620000a757607f821691505b602082108103620000c857634e487b7160e01b600052602260045260246000fd5b50919050565b601f8211156200011e576000816000526020600020601f850160051c81016020861015620000f95750805b601f850160051c820191505b818110156200011a5782815560010162000105565b5050505b505050565b81516001600160401b038111156200013f576200013f6200007c565b620001578162000150845462000092565b84620000ce565b602080601f8311600181146200018f5760008415620001765750858301515b600019600386901b1c1916600185901b1785556200011a565b600085815260208120601f198616915b82811015620001c0578886015182559484019460019091019084016200019f565b5085821015620001df5787850151600019600388901b60f8161c191681555b5050505050600190811b01905550565b61249680620001ff6000396000f3fe60806040526004361061012a5760003560e01c806395d89b41116100ab578063c87b56dd1161006f578063c87b56dd14610334578063d662f77414610354578063d79875eb14610374578063d96a094a14610394578063e985e9c5146103a7578063ebfa62b9146103c757600080fd5b806395d89b4114610292578063a22cb465146102a7578063a574cea4146102c7578063b7760c8f146102f4578063b88d4fde1461031457600080fd5b806323b872dd116100f257806323b872dd146101ff57806342842e0e1461021f5780636352211e1461023f57806370a082311461025f57806382a368021461027f57600080fd5b8063010a38f51461012f57806301ffc9a71461015357806306fdde0314610183578063081812fc146101a5578063095ea7b3146101dd575b600080fd5b34801561013b57600080fd5b506007545b6040519081526020015b60405180910390f35b34801561015f57600080fd5b5061017361016e366004611d42565b6103e7565b604051901515815260200161014a565b34801561018f57600080fd5b50610198610412565b60405161014a9190611daf565b3480156101b157600080fd5b506101c56101c0366004611dc2565b6104a4565b6040516001600160a01b03909116815260200161014a565b3480156101e957600080fd5b506101fd6101f8366004611df7565b6104cd565b005b34801561020b57600080fd5b506101fd61021a366004611e21565b6104dc565b34801561022b57600080fd5b506101fd61023a366004611e21565b61056c565b34801561024b57600080fd5b506101c561025a366004611dc2565b61058c565b34801561026b57600080fd5b5061014061027a366004611e5d565b610597565b6101fd61028d366004611f35565b6105df565b34801561029e57600080fd5b506101986109ba565b3480156102b357600080fd5b506101fd6102c2366004612010565b6109c9565b3480156102d357600080fd5b506102e76102e2366004611dc2565b6109d4565b60405161014a919061204c565b34801561030057600080fd5b506101fd61030f3660046120dc565b610cec565b34801561032057600080fd5b506101fd61032f366004612108565b610e31565b34801561034057600080fd5b5061019861034f366004611dc2565b610e48565b34801561036057600080fd5b506101fd61036f366004611dc2565b610f59565b34801561038057600080fd5b506101fd61038f366004612184565b610fd2565b6101fd6103a2366004611dc2565b611157565b3480156103b357600080fd5b506101736103c23660046121a6565b61140e565b3480156103d357600080fd5b506101736103e23660046120dc565b61143c565b60006001600160e01b03198216632483248360e11b148061040c575061040c82611485565b92915050565b606060008054610421906121d0565b80601f016020809104026020016040519081016040528092919081815260200182805461044d906121d0565b801561049a5780601f1061046f5761010080835404028352916020019161049a565b820191906000526020600020905b81548152906001019060200180831161047d57829003601f168201915b5050505050905090565b60006104af826114d5565b506000828152600460205260409020546001600160a01b031661040c565b6104d882823361150e565b5050565b6001600160a01b03821661050b57604051633250574960e11b8152600060048201526024015b60405180910390fd5b600061051883833361151b565b9050836001600160a01b0316816001600160a01b031614610566576040516364283d7b60e01b81526001600160a01b0380861660048301526024820184905282166044820152606401610502565b50505050565b61058783838360405180602001604052806000815250610e31565b505050565b600061040c826114d5565b60006001600160a01b0382166105c3576040516322718ad960e21b815260006004820152602401610502565b506001600160a01b031660009081526003602052604090205490565b4284116106545760405162461bcd60e51b815260206004820152603c60248201527f4d696e74204572726f723a204576656e742074696d65206e6565647320746f2060448201527f62652067726561746572207468616e2063757272656e742074696d65000000006064820152608401610502565b61066033600754611614565b61067b60075460405180602001604052806000815250611679565b8260ff1660000361073d576040805160e08101825233815260208082018781528284018881526060840186815260808501878152600060a0870181815288518088018a5282815260c0890190815260075483526008909752979020865181546001600160a01b0319166001600160a01b039091161781559351600185015591516002840155516003830155516004820155925160058401805460ff19169115159190911790555190919060068201906107349082612254565b509050506108c0565b8260ff1660010361080d576040805160e08101825233815260208101869052908101610769848761232a565b815260208082018490526040808301859052600060608085018290528251808501845282815260809586015260075482526008845290829020855181546001600160a01b0319166001600160a01b03909116178155928501516001840155908401516002830155830151600382015590820151600482015560a082015160058201805460ff191691151591909117905560c082015160068201906107349082612254565b6040805160e08101825233815260208082018781526000838501818152606085018781526080860188815260a0870184815288518088018a5285815260c089019081526007548652600890975297909320865181546001600160a01b0319166001600160a01b039091161781559351600185015590516002840155516003830155516004820155925160058401805460ff19169115159190911790555190919060068201906108bc9082612254565b5050505b6040805160a08101825233815260208082018b81528284018b9052606083018a90526080830189905260075460009081526009909252929020815181546001600160a01b0319166001600160a01b03909116178155915190919060018201906109299082612254565b506040820151600282019061093e9082612254565b50606082015160038201906109539082612254565b50608082015160048201906109689082612254565b505060075460405190915033907fb9144c96c86541f6fa89c9f2f02495cccf4b08cd6643e26d34ee00aa586558a890600090a3600780549060006109ab8361233d565b91905055505050505050505050565b606060018054610421906121d0565b6104d83383836116c9565b610a0f6040518060a0016040528060006001600160a01b03168152602001606081526020016060815260200160608152602001606081525090565b816007548110610a315760405162461bcd60e51b815260040161050290612356565b6040805160a081018252600085815260086020908152838220546001600160a01b031683528682526009815292812060010180549193830191610a73906121d0565b80601f0160208091040260200160405190810160405280929190818152602001828054610a9f906121d0565b8015610aec5780601f10610ac157610100808354040283529160200191610aec565b820191906000526020600020905b815481529060010190602001808311610acf57829003601f168201915b50505050508152602001600960008781526020019081526020016000206002018054610b17906121d0565b80601f0160208091040260200160405190810160405280929190818152602001828054610b43906121d0565b8015610b905780601f10610b6557610100808354040283529160200191610b90565b820191906000526020600020905b815481529060010190602001808311610b7357829003601f168201915b50505050508152602001600960008781526020019081526020016000206003018054610bbb906121d0565b80601f0160208091040260200160405190810160405280929190818152602001828054610be7906121d0565b8015610c345780601f10610c0957610100808354040283529160200191610c34565b820191906000526020600020905b815481529060010190602001808311610c1757829003601f168201915b50505050508152602001600960008781526020019081526020016000206004018054610c5f906121d0565b80601f0160208091040260200160405190810160405280929190818152602001828054610c8b906121d0565b8015610cd85780601f10610cad57610100808354040283529160200191610cd8565b820191906000526020600020905b815481529060010190602001808311610cbb57829003601f168201915b505050919092525090935050505b50919050565b816007548110610d0e5760405162461bcd60e51b815260040161050290612356565b826007548110610d305760405162461bcd60e51b815260040161050290612356565b83610d3a8161058c565b6001600160a01b0316336001600160a01b031614610d6a5760405162461bcd60e51b81526004016105029061238d565b6000858152600860205260409020600201544210610de75760405162461bcd60e51b815260206004820152603460248201527f5472616e73666572204572726f723a2043616e6e6f74207472616e7366657220604482015273746f6b656e20616674657220646561646c696e6560601b6064820152608401610502565b610df2338587611768565b60405185906001600160a01b0386169033907f9c8515990fd8c61431c4ac8db9b81475f90c292a1dda77731e56c22e64fc764390600090a45050505050565b610e3c8484846104dc565b61056684848484611818565b6060610e53826114d5565b5060008281526006602052604081208054610e6d906121d0565b80601f0160208091040260200160405190810160405280929190818152602001828054610e99906121d0565b8015610ee65780601f10610ebb57610100808354040283529160200191610ee6565b820191906000526020600020905b815481529060010190602001808311610ec957829003601f168201915b505050505090506000610f0460408051602081019091526000815290565b90508051600003610f16575092915050565b815115610f48578082604051602001610f309291906123d7565b60405160208183030381529060405292505050919050565b610f5184611941565b949350505050565b806007548110610f7b5760405162461bcd60e51b815260040161050290612356565b81610f858161058c565b6001600160a01b0316336001600160a01b031614610fb55760405162461bcd60e51b81526004016105029061238d565b50506000908152600860205260409020600501805460ff19169055565b806007548110610ff45760405162461bcd60e51b815260040161050290612356565b81610ffe8161058c565b6001600160a01b0316336001600160a01b03161461102e5760405162461bcd60e51b81526004016105029061238d565b6000838152600860205260409020600301548411156110b55760405162461bcd60e51b815260206004820152603d60248201527f53656c6c204572726f723a2053656c6c696e672070726963652063616e6e6f7460448201527f2062652067726561746572207468616e20696e697469616c20636f73740000006064820152608401610502565b60008381526008602052604090206002015442111561112f5760405162461bcd60e51b815260206004820152603060248201527f53656c6c204572726f723a2043616e6e6f74207472616e7366657220746f6b6560448201526f6e20616674657220646561646c696e6560801b6064820152608401610502565b505060009081526008602052604090206004810191909155600501805460ff19166001179055565b8060075481106111795760405162461bcd60e51b815260040161050290612356565b60008281526008602052604090206005015460ff166111da5760405162461bcd60e51b815260206004820152601d60248201527f427579204572726f723a20546f6b656e206e6f7420666f722073616c650000006044820152606401610502565b6000828152600860205260409020600201544211156112535760405162461bcd60e51b815260206004820152602f60248201527f427579204572726f723a2043616e6e6f74207472616e7366657220746f6b656e60448201526e20616674657220646561646c696e6560881b6064820152608401610502565b6000828152600860205260409020600401543410156112c05760405162461bcd60e51b8152602060048201526024808201527f427579204572726f723a20496e7375666669656369656e7420616d6f756e74206044820152631cd95b9d60e21b6064820152608401610502565b6000828152600860205260409020600501805460ff191690556112e2826119b6565b6112ec3383611614565b6000828152600860205260409020600601805461139191849161130e906121d0565b80601f016020809104026020016040519081016040528092919081815260200182805461133a906121d0565b80156113875780601f1061135c57610100808354040283529160200191611387565b820191906000526020600020905b81548152906001019060200180831161136a57829003601f168201915b5050505050611679565b600082815260086020526040808220805460049091015491516001600160a01b039091169282156108fc02929190818181858888f193505050501580156113dc573d6000803e3d6000fd5b50604051829033907ffe2ff4cf36ff7d2c2b06eb960897ee0d76d9c3e58da12feb7b93e86b226dd34490600090a35050565b6001600160a01b03918216600090815260056020908152604080832093909416825291909152205460ff1690565b60008260075481106114605760405162461bcd60e51b815260040161050290612356565b826001600160a01b03166114738561058c565b6001600160a01b031614949350505050565b60006001600160e01b031982166380ac58cd60e01b14806114b657506001600160e01b03198216635b5e139f60e01b145b8061040c57506301ffc9a760e01b6001600160e01b031983161461040c565b6000818152600260205260408120546001600160a01b03168061040c57604051637e27328960e01b815260048101849052602401610502565b61058783838360016119f1565b6000828152600260205260408120546001600160a01b039081169083161561154857611548818486611af7565b6001600160a01b03811615611586576115656000856000806119f1565b6001600160a01b038116600090815260036020526040902080546000190190555b6001600160a01b038516156115b5576001600160a01b0385166000908152600360205260409020805460010190555b60008481526002602052604080822080546001600160a01b0319166001600160a01b0389811691821790925591518793918516917fddf252ad1be2c89b69c2b068fc378daa952ba7f163c4a11628f55a4df523b3ef91a4949350505050565b6001600160a01b03821661163e57604051633250574960e11b815260006004820152602401610502565b600061164c8383600061151b565b90506001600160a01b03811615610587576040516339e3563760e11b815260006004820152602401610502565b60008281526006602052604090206116918282612254565b506040518281527ff8e1a15aba9398e019f0b49df1a4fde98ee17ae345cb5f6b5e2c27f5033e8ce79060200160405180910390a15050565b6001600160a01b0382166116fb57604051630b61174360e31b81526001600160a01b0383166004820152602401610502565b6001600160a01b03838116600081815260056020908152604080832094871680845294825291829020805460ff191686151590811790915591519182527f17307eab39ab6107e8899845ad3d59bd9653f200f220920489ca2b5937696c31910160405180910390a3505050565b6001600160a01b03821661179257604051633250574960e11b815260006004820152602401610502565b60006117a08383600061151b565b90506001600160a01b0381166117cc57604051637e27328960e01b815260048101839052602401610502565b836001600160a01b0316816001600160a01b031614610566576040516364283d7b60e01b81526001600160a01b0380861660048301526024820184905282166044820152606401610502565b6001600160a01b0383163b1561056657604051630a85bd0160e11b81526001600160a01b0384169063150b7a029061185a903390889087908790600401612406565b6020604051808303816000875af1925050508015611895575060408051601f3d908101601f1916820190925261189291810190612443565b60015b6118fe573d8080156118c3576040519150601f19603f3d011682016040523d82523d6000602084013e6118c8565b606091505b5080516000036118f657604051633250574960e11b81526001600160a01b0385166004820152602401610502565b805181602001fd5b6001600160e01b03198116630a85bd0160e11b1461193a57604051633250574960e11b81526001600160a01b0385166004820152602401610502565b5050505050565b606061194c826114d5565b50600061196460408051602081019091526000815290565b9050600081511161198457604051806020016040528060008152506119af565b8061198e84611b5b565b60405160200161199f9291906123d7565b6040516020818303038152906040525b9392505050565b60006119c5600083600061151b565b90506001600160a01b0381166104d857604051637e27328960e01b815260048101839052602401610502565b8080611a0557506001600160a01b03821615155b15611ac7576000611a15846114d5565b90506001600160a01b03831615801590611a415750826001600160a01b0316816001600160a01b031614155b8015611a545750611a52818461140e565b155b15611a7d5760405163a9fbf51f60e01b81526001600160a01b0384166004820152602401610502565b8115611ac55783856001600160a01b0316826001600160a01b03167f8c5be1e5ebec7d5bd14f71427d1e84f3dd0314c0f7b2291e5b200ac8c7c3b92560405160405180910390a45b505b5050600090815260046020526040902080546001600160a01b0319166001600160a01b0392909216919091179055565b611b02838383611bee565b610587576001600160a01b038316611b3057604051637e27328960e01b815260048101829052602401610502565b60405163177e802f60e01b81526001600160a01b038316600482015260248101829052604401610502565b60606000611b6883611c51565b600101905060008167ffffffffffffffff811115611b8857611b88611e78565b6040519080825280601f01601f191660200182016040528015611bb2576020820181803683370190505b5090508181016020015b600019016f181899199a1a9b1b9c1cb0b131b232b360811b600a86061a8153600a8504945084611bbc57509392505050565b60006001600160a01b03831615801590610f515750826001600160a01b0316846001600160a01b03161480611c285750611c28848461140e565b80610f515750506000908152600460205260409020546001600160a01b03908116911614919050565b60008072184f03e93ff9f4daa797ed6e38ed64bf6a1f0160401b8310611c905772184f03e93ff9f4daa797ed6e38ed64bf6a1f0160401b830492506040015b6d04ee2d6d415b85acef81000000008310611cbc576d04ee2d6d415b85acef8100000000830492506020015b662386f26fc100008310611cda57662386f26fc10000830492506010015b6305f5e1008310611cf2576305f5e100830492506008015b6127108310611d0657612710830492506004015b60648310611d18576064830492506002015b600a831061040c5760010192915050565b6001600160e01b031981168114611d3f57600080fd5b50565b600060208284031215611d5457600080fd5b81356119af81611d29565b60005b83811015611d7a578181015183820152602001611d62565b50506000910152565b60008151808452611d9b816020860160208601611d5f565b601f01601f19169290920160200192915050565b6020815260006119af6020830184611d83565b600060208284031215611dd457600080fd5b5035919050565b80356001600160a01b0381168114611df257600080fd5b919050565b60008060408385031215611e0a57600080fd5b611e1383611ddb565b946020939093013593505050565b600080600060608486031215611e3657600080fd5b611e3f84611ddb565b9250611e4d60208501611ddb565b9150604084013590509250925092565b600060208284031215611e6f57600080fd5b6119af82611ddb565b634e487b7160e01b600052604160045260246000fd5b600067ffffffffffffffff80841115611ea957611ea9611e78565b604051601f8501601f19908116603f01168101908282118183101715611ed157611ed1611e78565b81604052809350858152868686011115611eea57600080fd5b858560208301376000602087830101525050509392505050565b600082601f830112611f1557600080fd5b6119af83833560208501611e8e565b803560ff81168114611df257600080fd5b600080600080600080600080610100898b031215611f5257600080fd5b883567ffffffffffffffff80821115611f6a57600080fd5b611f768c838d01611f04565b995060208b0135915080821115611f8c57600080fd5b611f988c838d01611f04565b985060408b0135915080821115611fae57600080fd5b611fba8c838d01611f04565b975060608b0135915080821115611fd057600080fd5b50611fdd8b828c01611f04565b95505060808901359350611ff360a08a01611f24565b925060c0890135915060e089013590509295985092959890939650565b6000806040838503121561202357600080fd5b61202c83611ddb565b91506020830135801515811461204157600080fd5b809150509250929050565b602080825282516001600160a01b03168282015282015160a0604083015260009061207a60c0840182611d83565b90506040840151601f19808584030160608601526120988383611d83565b925060608601519150808584030160808601526120b58383611d83565b925060808601519150808584030160a0860152506120d38282611d83565b95945050505050565b600080604083850312156120ef57600080fd5b823591506120ff60208401611ddb565b90509250929050565b6000806000806080858703121561211e57600080fd5b61212785611ddb565b935061213560208601611ddb565b925060408501359150606085013567ffffffffffffffff81111561215857600080fd5b8501601f8101871361216957600080fd5b61217887823560208401611e8e565b91505092959194509250565b6000806040838503121561219757600080fd5b50508035926020909101359150565b600080604083850312156121b957600080fd5b6121c283611ddb565b91506120ff60208401611ddb565b600181811c908216806121e457607f821691505b602082108103610ce657634e487b7160e01b600052602260045260246000fd5b601f821115610587576000816000526020600020601f850160051c8101602086101561222d5750805b601f850160051c820191505b8181101561224c57828155600101612239565b505050505050565b815167ffffffffffffffff81111561226e5761226e611e78565b6122828161227c84546121d0565b84612204565b602080601f8311600181146122b7576000841561229f5750858301515b600019600386901b1c1916600185901b17855561224c565b600085815260208120601f198616915b828110156122e6578886015182559484019460019091019084016122c7565b50858210156123045787850151600019600388901b60f8161c191681555b5050505050600190811b01905550565b634e487b7160e01b600052601160045260246000fd5b8181038181111561040c5761040c612314565b60006001820161234f5761234f612314565b5060010190565b6020808252601e908201527f4572726f723a20546f6b656e20494420646f6573206e6f742065786973740000604082015260600190565b6020808252602a908201527f4572726f723a2046756e6374696f6e2063616c6c6572206e6f7420746865207460408201526937b5b2b71037bbb732b960b11b606082015260800190565b600083516123e9818460208801611d5f565b8351908301906123fd818360208801611d5f565b01949350505050565b6001600160a01b038581168252841660208201526040810183905260806060820181905260009061243990830184611d83565b9695505050505050565b60006020828403121561245557600080fd5b81516119af81611d2956fea264697066735822122074f90a0ca766cd125b7c9532d256e2ceac940de8fecc91f8ae1f45463fbc149264736f6c63430008180033","linkReferences":{}},"methodIdentifiers":{"approve(address,uint256)":"095ea7b3","balanceOf(address)":"70a08231","buy(uint256)":"d96a094a","getApproved(uint256)":"081812fc","getMetadata(uint256)":"a574cea4","getTokenId()":"010a38f5","isApprovedForAll(address,address)":"e985e9c5","mint(string,string,string,string,uint256,uint8,uint256,uint256)":"82a36802","name()":"06fdde03","ownerOf(uint256)":"6352211e","revertSell(uint256)":"d662f774","safeTransferFrom(address,address,uint256)":"42842e0e","safeTransferFrom(address,address,uint256,bytes)":"b88d4fde","sell(uint256,uint256)":"d79875eb","setApprovalForAll(address,bool)":"a22cb465","supportsInterface(bytes4)":"01ffc9a7","symbol()":"95d89b41","tokenURI(uint256)":"c87b56dd","transfer(uint256,address)":"b7760c8f","transferFrom(address,address,uint256)":"23b872dd","verify(uint256,address)":"ebfa62b9"},"id":36}