{"abi":[{"type":"constructor","inputs":[],"stateMutability":"nonpayable"},{"type":"function","name":"approve","inputs":[{"name":"to","type":"address","internalType":"address"},{"name":"tokenId","type":"uint256","internalType":"uint256"}],"outputs":[],"stateMutability":"nonpayable"},{"type":"function","name":"balanceOf","inputs":[{"name":"owner","type":"address","internalType":"address"}],"outputs":[{"name":"","type":"uint256","internalType":"uint256"}],"stateMutability":"view"},{"type":"function","name":"buy","inputs":[{"name":"_tokenId","type":"uint256","internalType":"uint256"}],"outputs":[],"stateMutability":"payable"},{"type":"function","name":"getApproved","inputs":[{"name":"tokenId","type":"uint256","internalType":"uint256"}],"outputs":[{"name":"","type":"address","internalType":"address"}],"stateMutability":"view"},{"type":"function","name":"getTokenId","inputs":[],"outputs":[{"name":"","type":"uint256","internalType":"uint256"}],"stateMutability":"view"},{"type":"function","name":"isApprovedForAll","inputs":[{"name":"owner","type":"address","internalType":"address"},{"name":"operator","type":"address","internalType":"address"}],"outputs":[{"name":"","type":"bool","internalType":"bool"}],"stateMutability":"view"},{"type":"function","name":"mint","inputs":[{"name":"_uri","type":"string","internalType":"string"},{"name":"_eventTime","type":"uint256","internalType":"uint256"},{"name":"_transferType","type":"uint8","internalType":"uint8"},{"name":"_deadlineTime","type":"uint256","internalType":"uint256"},{"name":"_ticketCost","type":"uint256","internalType":"uint256"}],"outputs":[],"stateMutability":"nonpayable"},{"type":"function","name":"name","inputs":[],"outputs":[{"name":"","type":"string","internalType":"string"}],"stateMutability":"view"},{"type":"function","name":"ownerOf","inputs":[{"name":"tokenId","type":"uint256","internalType":"uint256"}],"outputs":[{"name":"","type":"address","internalType":"address"}],"stateMutability":"view"},{"type":"function","name":"revertSell","inputs":[{"name":"_tokenId","type":"uint256","internalType":"uint256"}],"outputs":[],"stateMutability":"nonpayable"},{"type":"function","name":"safeTransferFrom","inputs":[{"name":"from","type":"address","internalType":"address"},{"name":"to","type":"address","internalType":"address"},{"name":"tokenId","type":"uint256","internalType":"uint256"}],"outputs":[],"stateMutability":"nonpayable"},{"type":"function","name":"safeTransferFrom","inputs":[{"name":"from","type":"address","internalType":"address"},{"name":"to","type":"address","internalType":"address"},{"name":"tokenId","type":"uint256","internalType":"uint256"},{"name":"data","type":"bytes","internalType":"bytes"}],"outputs":[],"stateMutability":"nonpayable"},{"type":"function","name":"sell","inputs":[{"name":"_sellingPrice","type":"uint256","internalType":"uint256"},{"name":"_tokenId","type":"uint256","internalType":"uint256"}],"outputs":[],"stateMutability":"nonpayable"},{"type":"function","name":"setApprovalForAll","inputs":[{"name":"operator","type":"address","internalType":"address"},{"name":"approved","type":"bool","internalType":"bool"}],"outputs":[],"stateMutability":"nonpayable"},{"type":"function","name":"supportsInterface","inputs":[{"name":"interfaceId","type":"bytes4","internalType":"bytes4"}],"outputs":[{"name":"","type":"bool","internalType":"bool"}],"stateMutability":"view"},{"type":"function","name":"symbol","inputs":[],"outputs":[{"name":"","type":"string","internalType":"string"}],"stateMutability":"view"},{"type":"function","name":"tokenURI","inputs":[{"name":"tokenId","type":"uint256","internalType":"uint256"}],"outputs":[{"name":"","type":"string","internalType":"string"}],"stateMutability":"view"},{"type":"function","name":"transfer","inputs":[{"name":"_tokenId","type":"uint256","internalType":"uint256"},{"name":"_to","type":"address","internalType":"address"}],"outputs":[],"stateMutability":"nonpayable"},{"type":"function","name":"transferFrom","inputs":[{"name":"from","type":"address","internalType":"address"},{"name":"to","type":"address","internalType":"address"},{"name":"tokenId","type":"uint256","internalType":"uint256"}],"outputs":[],"stateMutability":"nonpayable"},{"type":"function","name":"verify","inputs":[{"name":"_tokenId","type":"uint256","internalType":"uint256"},{"name":"_owner","type":"address","internalType":"address"}],"outputs":[{"name":"","type":"bool","internalType":"bool"}],"stateMutability":"view"},{"type":"event","name":"Approval","inputs":[{"name":"owner","type":"address","indexed":true,"internalType":"address"},{"name":"approved","type":"address","indexed":true,"internalType":"address"},{"name":"tokenId","type":"uint256","indexed":true,"internalType":"uint256"}],"anonymous":false},{"type":"event","name":"ApprovalForAll","inputs":[{"name":"owner","type":"address","indexed":true,"internalType":"address"},{"name":"operator","type":"address","indexed":true,"internalType":"address"},{"name":"approved","type":"bool","indexed":false,"internalType":"bool"}],"anonymous":false},{"type":"event","name":"BatchMetadataUpdate","inputs":[{"name":"_fromTokenId","type":"uint256","indexed":false,"internalType":"uint256"},{"name":"_toTokenId","type":"uint256","indexed":false,"internalType":"uint256"}],"anonymous":false},{"type":"event","name":"MetadataUpdate","inputs":[{"name":"_tokenId","type":"uint256","indexed":false,"internalType":"uint256"}],"anonymous":false},{"type":"event","name":"TokenMinted","inputs":[{"name":"owner","type":"address","indexed":true,"internalType":"address"},{"name":"tokenId","type":"uint256","indexed":true,"internalType":"uint256"}],"anonymous":false},{"type":"event","name":"TokenSold","inputs":[{"name":"buyer","type":"address","indexed":true,"internalType":"address"},{"name":"tokenId","type":"uint256","indexed":true,"internalType":"uint256"}],"anonymous":false},{"type":"event","name":"TokenTransferred","inputs":[{"name":"from","type":"address","indexed":true,"internalType":"address"},{"name":"to","type":"address","indexed":true,"internalType":"address"},{"name":"tokenId","type":"uint256","indexed":true,"internalType":"uint256"}],"anonymous":false},{"type":"event","name":"Transfer","inputs":[{"name":"from","type":"address","indexed":true,"internalType":"address"},{"name":"to","type":"address","indexed":true,"internalType":"address"},{"name":"tokenId","type":"uint256","indexed":true,"internalType":"uint256"}],"anonymous":false},{"type":"error","name":"ERC721IncorrectOwner","inputs":[{"name":"sender","type":"address","internalType":"address"},{"name":"tokenId","type":"uint256","internalType":"uint256"},{"name":"owner","type":"address","internalType":"address"}]},{"type":"error","name":"ERC721InsufficientApproval","inputs":[{"name":"operator","type":"address","internalType":"address"},{"name":"tokenId","type":"uint256","internalType":"uint256"}]},{"type":"error","name":"ERC721InvalidApprover","inputs":[{"name":"approver","type":"address","internalType":"address"}]},{"type":"error","name":"ERC721InvalidOperator","inputs":[{"name":"operator","type":"address","internalType":"address"}]},{"type":"error","name":"ERC721InvalidOwner","inputs":[{"name":"owner","type":"address","internalType":"address"}]},{"type":"error","name":"ERC721InvalidReceiver","inputs":[{"name":"receiver","type":"address","internalType":"address"}]},{"type":"error","name":"ERC721InvalidSender","inputs":[{"name":"sender","type":"address","internalType":"address"}]},{"type":"error","name":"ERC721NonexistentToken","inputs":[{"name":"tokenId","type":"uint256","internalType":"uint256"}]}],"bytecode":{"object":"0x608060405260006007553480156200001657600080fd5b506040518060400160405280600781526020016611151a58dad95d60ca1b8152506040518060400160405280600381526020016244544b60e81b815250816000908162000064919062000123565b50600162000073828262000123565b505050620001ef565b634e487b7160e01b600052604160045260246000fd5b600181811c90821680620000a757607f821691505b602082108103620000c857634e487b7160e01b600052602260045260246000fd5b50919050565b601f8211156200011e576000816000526020600020601f850160051c81016020861015620000f95750805b601f850160051c820191505b818110156200011a5782815560010162000105565b5050505b505050565b81516001600160401b038111156200013f576200013f6200007c565b620001578162000150845462000092565b84620000ce565b602080601f8311600181146200018f5760008415620001765750858301515b600019600386901b1c1916600185901b1785556200011a565b600085815260208120601f198616915b82811015620001c0578886015182559484019460019091019084016200019f565b5085821015620001df5787850151600019600388901b60f8161c191681555b5050505050600190811b01905550565b611f8180620001ff6000396000f3fe60806040526004361061011f5760003560e01c806395d89b41116100a0578063d662f77411610064578063d662f7741461032d578063d79875eb1461034d578063d96a094a1461036d578063e985e9c514610380578063ebfa62b9146103a057600080fd5b806395d89b4114610298578063a22cb465146102ad578063b7760c8f146102cd578063b88d4fde146102ed578063c87b56dd1461030d57600080fd5b806315aa5561116100e757806315aa5561146101f857806323b872dd1461021857806342842e0e146102385780636352211e1461025857806370a082311461027857600080fd5b8063010a38f51461012457806301ffc9a71461014c57806306fdde031461017c578063081812fc1461019e578063095ea7b3146101d6575b600080fd5b34801561013057600080fd5b506101396103c0565b6040519081526020015b60405180910390f35b34801561015857600080fd5b5061016c61016736600461193e565b6103d6565b6040519015158152602001610143565b34801561018857600080fd5b50610191610401565b60405161014391906119ab565b3480156101aa57600080fd5b506101be6101b93660046119be565b610493565b6040516001600160a01b039091168152602001610143565b3480156101e257600080fd5b506101f66101f13660046119f3565b6104bc565b005b34801561020457600080fd5b506101f6610213366004611aa9565b6104cb565b34801561022457600080fd5b506101f6610233366004611b2e565b6107d0565b34801561024457600080fd5b506101f6610253366004611b2e565b61085b565b34801561026457600080fd5b506101be6102733660046119be565b61087b565b34801561028457600080fd5b50610139610293366004611b6a565b610886565b3480156102a457600080fd5b506101916108ce565b3480156102b957600080fd5b506101f66102c8366004611b85565b6108dd565b3480156102d957600080fd5b506101f66102e8366004611bc1565b6108e8565b3480156102f957600080fd5b506101f6610308366004611bed565b610a2d565b34801561031957600080fd5b506101916103283660046119be565b610a44565b34801561033957600080fd5b506101f66103483660046119be565b610b55565b34801561035957600080fd5b506101f6610368366004611c69565b610bce565b6101f661037b3660046119be565b610d53565b34801561038c57600080fd5b5061016c61039b366004611c8b565b61100a565b3480156103ac57600080fd5b5061016c6103bb366004611bc1565b611038565b600060016007546103d19190611ccb565b905090565b60006001600160e01b03198216632483248360e11b14806103fb57506103fb82611081565b92915050565b60606000805461041090611cde565b80601f016020809104026020016040519081016040528092919081815260200182805461043c90611cde565b80156104895780601f1061045e57610100808354040283529160200191610489565b820191906000526020600020905b81548152906001019060200180831161046c57829003601f168201915b5050505050905090565b600061049e826110d1565b506000828152600460205260409020546001600160a01b03166103fb565b6104c782823361110a565b5050565b4284116105455760405162461bcd60e51b815260206004820152603c60248201527f4d696e74204572726f723a204576656e742074696d65206e6565647320746f2060448201527f62652067726561746572207468616e2063757272656e742074696d650000000060648201526084015b60405180910390fd5b61055133600754611117565b61055d6007548661117c565b8260ff16600003610615576040805160e08101825233815260208082018781528284018881526060840186815260808501878152600060a0870181815260c088018e815260075483526008909752979020865181546001600160a01b0319166001600160a01b039091161781559351600185015591516002840155516003830155516004820155925160058401805460ff191691151591909117905551909190600682019061060c9082611d68565b50905050610786565b8260ff166001036106dd576040805160e081018252338152602081018690529081016106418487611ccb565b8152602080820184905260408083018590526000606080850182905260809485018b905260075482526008845290829020855181546001600160a01b0319166001600160a01b03909116178155928501516001840155908401516002830155830151600382015590820151600482015560a082015160058201805460ff191691151591909117905560c0820151600682019061060c9082611d68565b6040805160e08101825233815260208082018781526000838501818152606085018781526080860188815260a0870184815260c088018e81526007548652600890975297909320865181546001600160a01b0319166001600160a01b039091161781559351600185015590516002840155516003830155516004820155925160058401805460ff19169115159190911790555190919060068201906107829082611d68565b5050505b60075460405133907fb9144c96c86541f6fa89c9f2f02495cccf4b08cd6643e26d34ee00aa586558a890600090a3600780549060006107c483611e28565b91905055505050505050565b6001600160a01b0382166107fa57604051633250574960e11b81526000600482015260240161053c565b60006108078383336111cc565b9050836001600160a01b0316816001600160a01b031614610855576040516364283d7b60e01b81526001600160a01b038086166004830152602482018490528216604482015260640161053c565b50505050565b61087683838360405180602001604052806000815250610a2d565b505050565b60006103fb826110d1565b60006001600160a01b0382166108b2576040516322718ad960e21b81526000600482015260240161053c565b506001600160a01b031660009081526003602052604090205490565b60606001805461041090611cde565b6104c73383836112c5565b81600754811061090a5760405162461bcd60e51b815260040161053c90611e41565b82600754811061092c5760405162461bcd60e51b815260040161053c90611e41565b836109368161087b565b6001600160a01b0316336001600160a01b0316146109665760405162461bcd60e51b815260040161053c90611e78565b60008581526008602052604090206002015442106109e35760405162461bcd60e51b815260206004820152603460248201527f5472616e73666572204572726f723a2043616e6e6f74207472616e7366657220604482015273746f6b656e20616674657220646561646c696e6560601b606482015260840161053c565b6109ee338587611364565b60405185906001600160a01b0386169033907f9c8515990fd8c61431c4ac8db9b81475f90c292a1dda77731e56c22e64fc764390600090a45050505050565b610a388484846107d0565b61085584848484611414565b6060610a4f826110d1565b5060008281526006602052604081208054610a6990611cde565b80601f0160208091040260200160405190810160405280929190818152602001828054610a9590611cde565b8015610ae25780601f10610ab757610100808354040283529160200191610ae2565b820191906000526020600020905b815481529060010190602001808311610ac557829003601f168201915b505050505090506000610b0060408051602081019091526000815290565b90508051600003610b12575092915050565b815115610b44578082604051602001610b2c929190611ec2565b60405160208183030381529060405292505050919050565b610b4d8461153d565b949350505050565b806007548110610b775760405162461bcd60e51b815260040161053c90611e41565b81610b818161087b565b6001600160a01b0316336001600160a01b031614610bb15760405162461bcd60e51b815260040161053c90611e78565b50506000908152600860205260409020600501805460ff19169055565b806007548110610bf05760405162461bcd60e51b815260040161053c90611e41565b81610bfa8161087b565b6001600160a01b0316336001600160a01b031614610c2a5760405162461bcd60e51b815260040161053c90611e78565b600083815260086020526040902060030154841115610cb15760405162461bcd60e51b815260206004820152603d60248201527f53656c6c204572726f723a2053656c6c696e672070726963652063616e6e6f7460448201527f2062652067726561746572207468616e20696e697469616c20636f7374000000606482015260840161053c565b600083815260086020526040902060020154421115610d2b5760405162461bcd60e51b815260206004820152603060248201527f53656c6c204572726f723a2043616e6e6f74207472616e7366657220746f6b6560448201526f6e20616674657220646561646c696e6560801b606482015260840161053c565b505060009081526008602052604090206004810191909155600501805460ff19166001179055565b806007548110610d755760405162461bcd60e51b815260040161053c90611e41565b60008281526008602052604090206005015460ff16610dd65760405162461bcd60e51b815260206004820152601d60248201527f427579204572726f723a20546f6b656e206e6f7420666f722073616c65000000604482015260640161053c565b600082815260086020526040902060020154421115610e4f5760405162461bcd60e51b815260206004820152602f60248201527f427579204572726f723a2043616e6e6f74207472616e7366657220746f6b656e60448201526e20616674657220646561646c696e6560881b606482015260840161053c565b600082815260086020526040902060040154341015610ebc5760405162461bcd60e51b8152602060048201526024808201527f427579204572726f723a20496e7375666669656369656e7420616d6f756e74206044820152631cd95b9d60e21b606482015260840161053c565b6000828152600860205260409020600501805460ff19169055610ede826115b2565b610ee83383611117565b60008281526008602052604090206006018054610f8d918491610f0a90611cde565b80601f0160208091040260200160405190810160405280929190818152602001828054610f3690611cde565b8015610f835780601f10610f5857610100808354040283529160200191610f83565b820191906000526020600020905b815481529060010190602001808311610f6657829003601f168201915b505050505061117c565b600082815260086020526040808220805460049091015491516001600160a01b039091169282156108fc02929190818181858888f19350505050158015610fd8573d6000803e3d6000fd5b50604051829033907ffe2ff4cf36ff7d2c2b06eb960897ee0d76d9c3e58da12feb7b93e86b226dd34490600090a35050565b6001600160a01b03918216600090815260056020908152604080832093909416825291909152205460ff1690565b600082600754811061105c5760405162461bcd60e51b815260040161053c90611e41565b826001600160a01b031661106f8561087b565b6001600160a01b031614949350505050565b60006001600160e01b031982166380ac58cd60e01b14806110b257506001600160e01b03198216635b5e139f60e01b145b806103fb57506301ffc9a760e01b6001600160e01b03198316146103fb565b6000818152600260205260408120546001600160a01b0316806103fb57604051637e27328960e01b81526004810184905260240161053c565b61087683838360016115ed565b6001600160a01b03821661114157604051633250574960e11b81526000600482015260240161053c565b600061114f838360006111cc565b90506001600160a01b03811615610876576040516339e3563760e11b81526000600482015260240161053c565b60008281526006602052604090206111948282611d68565b506040518281527ff8e1a15aba9398e019f0b49df1a4fde98ee17ae345cb5f6b5e2c27f5033e8ce79060200160405180910390a15050565b6000828152600260205260408120546001600160a01b03908116908316156111f9576111f98184866116f3565b6001600160a01b03811615611237576112166000856000806115ed565b6001600160a01b038116600090815260036020526040902080546000190190555b6001600160a01b03851615611266576001600160a01b0385166000908152600360205260409020805460010190555b60008481526002602052604080822080546001600160a01b0319166001600160a01b0389811691821790925591518793918516917fddf252ad1be2c89b69c2b068fc378daa952ba7f163c4a11628f55a4df523b3ef91a4949350505050565b6001600160a01b0382166112f757604051630b61174360e31b81526001600160a01b038316600482015260240161053c565b6001600160a01b03838116600081815260056020908152604080832094871680845294825291829020805460ff191686151590811790915591519182527f17307eab39ab6107e8899845ad3d59bd9653f200f220920489ca2b5937696c31910160405180910390a3505050565b6001600160a01b03821661138e57604051633250574960e11b81526000600482015260240161053c565b600061139c838360006111cc565b90506001600160a01b0381166113c857604051637e27328960e01b81526004810183905260240161053c565b836001600160a01b0316816001600160a01b031614610855576040516364283d7b60e01b81526001600160a01b038086166004830152602482018490528216604482015260640161053c565b6001600160a01b0383163b1561085557604051630a85bd0160e11b81526001600160a01b0384169063150b7a0290611456903390889087908790600401611ef1565b6020604051808303816000875af1925050508015611491575060408051601f3d908101601f1916820190925261148e91810190611f2e565b60015b6114fa573d8080156114bf576040519150601f19603f3d011682016040523d82523d6000602084013e6114c4565b606091505b5080516000036114f257604051633250574960e11b81526001600160a01b038516600482015260240161053c565b805181602001fd5b6001600160e01b03198116630a85bd0160e11b1461153657604051633250574960e11b81526001600160a01b038516600482015260240161053c565b5050505050565b6060611548826110d1565b50600061156060408051602081019091526000815290565b9050600081511161158057604051806020016040528060008152506115ab565b8061158a84611757565b60405160200161159b929190611ec2565b6040516020818303038152906040525b9392505050565b60006115c160008360006111cc565b90506001600160a01b0381166104c757604051637e27328960e01b81526004810183905260240161053c565b808061160157506001600160a01b03821615155b156116c3576000611611846110d1565b90506001600160a01b0383161580159061163d5750826001600160a01b0316816001600160a01b031614155b8015611650575061164e818461100a565b155b156116795760405163a9fbf51f60e01b81526001600160a01b038416600482015260240161053c565b81156116c15783856001600160a01b0316826001600160a01b03167f8c5be1e5ebec7d5bd14f71427d1e84f3dd0314c0f7b2291e5b200ac8c7c3b92560405160405180910390a45b505b5050600090815260046020526040902080546001600160a01b0319166001600160a01b0392909216919091179055565b6116fe8383836117ea565b610876576001600160a01b03831661172c57604051637e27328960e01b81526004810182905260240161053c565b60405163177e802f60e01b81526001600160a01b03831660048201526024810182905260440161053c565b606060006117648361184d565b600101905060008167ffffffffffffffff81111561178457611784611a1d565b6040519080825280601f01601f1916602001820160405280156117ae576020820181803683370190505b5090508181016020015b600019016f181899199a1a9b1b9c1cb0b131b232b360811b600a86061a8153600a85049450846117b857509392505050565b60006001600160a01b03831615801590610b4d5750826001600160a01b0316846001600160a01b031614806118245750611824848461100a565b80610b4d5750506000908152600460205260409020546001600160a01b03908116911614919050565b60008072184f03e93ff9f4daa797ed6e38ed64bf6a1f0160401b831061188c5772184f03e93ff9f4daa797ed6e38ed64bf6a1f0160401b830492506040015b6d04ee2d6d415b85acef810000000083106118b8576d04ee2d6d415b85acef8100000000830492506020015b662386f26fc1000083106118d657662386f26fc10000830492506010015b6305f5e10083106118ee576305f5e100830492506008015b612710831061190257612710830492506004015b60648310611914576064830492506002015b600a83106103fb5760010192915050565b6001600160e01b03198116811461193b57600080fd5b50565b60006020828403121561195057600080fd5b81356115ab81611925565b60005b8381101561197657818101518382015260200161195e565b50506000910152565b6000815180845261199781602086016020860161195b565b601f01601f19169290920160200192915050565b6020815260006115ab602083018461197f565b6000602082840312156119d057600080fd5b5035919050565b80356001600160a01b03811681146119ee57600080fd5b919050565b60008060408385031215611a0657600080fd5b611a0f836119d7565b946020939093013593505050565b634e487b7160e01b600052604160045260246000fd5b600067ffffffffffffffff80841115611a4e57611a4e611a1d565b604051601f8501601f19908116603f01168101908282118183101715611a7657611a76611a1d565b81604052809350858152868686011115611a8f57600080fd5b858560208301376000602087830101525050509392505050565b600080600080600060a08688031215611ac157600080fd5b853567ffffffffffffffff811115611ad857600080fd5b8601601f81018813611ae957600080fd5b611af888823560208401611a33565b95505060208601359350604086013560ff81168114611b1657600080fd5b94979396509394606081013594506080013592915050565b600080600060608486031215611b4357600080fd5b611b4c846119d7565b9250611b5a602085016119d7565b9150604084013590509250925092565b600060208284031215611b7c57600080fd5b6115ab826119d7565b60008060408385031215611b9857600080fd5b611ba1836119d7565b915060208301358015158114611bb657600080fd5b809150509250929050565b60008060408385031215611bd457600080fd5b82359150611be4602084016119d7565b90509250929050565b60008060008060808587031215611c0357600080fd5b611c0c856119d7565b9350611c1a602086016119d7565b925060408501359150606085013567ffffffffffffffff811115611c3d57600080fd5b8501601f81018713611c4e57600080fd5b611c5d87823560208401611a33565b91505092959194509250565b60008060408385031215611c7c57600080fd5b50508035926020909101359150565b60008060408385031215611c9e57600080fd5b611ca7836119d7565b9150611be4602084016119d7565b634e487b7160e01b600052601160045260246000fd5b818103818111156103fb576103fb611cb5565b600181811c90821680611cf257607f821691505b602082108103611d1257634e487b7160e01b600052602260045260246000fd5b50919050565b601f821115610876576000816000526020600020601f850160051c81016020861015611d415750805b601f850160051c820191505b81811015611d6057828155600101611d4d565b505050505050565b815167ffffffffffffffff811115611d8257611d82611a1d565b611d9681611d908454611cde565b84611d18565b602080601f831160018114611dcb5760008415611db35750858301515b600019600386901b1c1916600185901b178555611d60565b600085815260208120601f198616915b82811015611dfa57888601518255948401946001909101908401611ddb565b5085821015611e185787850151600019600388901b60f8161c191681555b5050505050600190811b01905550565b600060018201611e3a57611e3a611cb5565b5060010190565b6020808252601e908201527f4572726f723a20546f6b656e20494420646f6573206e6f742065786973740000604082015260600190565b6020808252602a908201527f4572726f723a2046756e6374696f6e2063616c6c6572206e6f7420746865207460408201526937b5b2b71037bbb732b960b11b606082015260800190565b60008351611ed481846020880161195b565b835190830190611ee881836020880161195b565b01949350505050565b6001600160a01b0385811682528416602082015260408101839052608060608201819052600090611f249083018461197f565b9695505050505050565b600060208284031215611f4057600080fd5b81516115ab8161192556fea2646970667358221220b740dd3c5d150bdd5f200355b0b0166a01578b23b147b7eb92f306648b8301d464736f6c63430008180033","linkReferences":{}},"methodIdentifiers":{"approve(address,uint256)":"095ea7b3","balanceOf(address)":"70a08231","buy(uint256)":"d96a094a","getApproved(uint256)":"081812fc","getTokenId()":"010a38f5","isApprovedForAll(address,address)":"e985e9c5","mint(string,uint256,uint8,uint256,uint256)":"15aa5561","name()":"06fdde03","ownerOf(uint256)":"6352211e","revertSell(uint256)":"d662f774","safeTransferFrom(address,address,uint256)":"42842e0e","safeTransferFrom(address,address,uint256,bytes)":"b88d4fde","sell(uint256,uint256)":"d79875eb","setApprovalForAll(address,bool)":"a22cb465","supportsInterface(bytes4)":"01ffc9a7","symbol()":"95d89b41","tokenURI(uint256)":"c87b56dd","transfer(uint256,address)":"b7760c8f","transferFrom(address,address,uint256)":"23b872dd","verify(uint256,address)":"ebfa62b9"},"id":36}